{
  "_format": "hh-sol-artifact-1",
  "contractName": "IndianElection",
  "sourceName": "contracts/IndianElection.sol",
  "abi": [
    {
      "inputs": [
        {
          "internalType": "string",
          "name": "_electionName",
          "type": "string"
        },
        {
          "internalType": "uint8",
          "name": "_constituencyCount",
          "type": "uint8"
        }
      ],
      "stateMutability": "nonpayable",
      "type": "constructor"
    },
    {
      "inputs": [
        {
          "internalType": "address",
          "name": "owner",
          "type": "address"
        }
      ],
      "name": "OwnableInvalidOwner",
      "type": "error"
    },
    {
      "inputs": [
        {
          "internalType": "address",
          "name": "account",
          "type": "address"
        }
      ],
      "name": "OwnableUnauthorizedAccount",
      "type": "error"
    },
    {
      "inputs": [],
      "name": "ReentrancyGuardReentrantCall",
      "type": "error"
    },
    {
      "anonymous": false,
      "inputs": [
        {
          "indexed": true,
          "internalType": "uint256",
          "name": "id",
          "type": "uint256"
        },
        {
          "indexed": false,
          "internalType": "string",
          "name": "name",
          "type": "string"
        },
        {
          "indexed": false,
          "internalType": "string",
          "name": "party",
          "type": "string"
        },
        {
          "indexed": false,
          "internalType": "string",
          "name": "symbol",
          "type": "string"
        },
        {
          "indexed": false,
          "internalType": "uint8",
          "name": "constituencyId",
          "type": "uint8"
        },
        {
          "indexed": false,
          "internalType": "bool",
          "name": "isNOTA",
          "type": "bool"
        }
      ],
      "name": "CandidateAdded",
      "type": "event"
    },
    {
      "anonymous": false,
      "inputs": [
        {
          "indexed": true,
          "internalType": "address",
          "name": "previousOwner",
          "type": "address"
        },
        {
          "indexed": true,
          "internalType": "address",
          "name": "newOwner",
          "type": "address"
        }
      ],
      "name": "OwnershipTransferred",
      "type": "event"
    },
    {
      "anonymous": false,
      "inputs": [
        {
          "indexed": false,
          "internalType": "enum IndianElection.Phase",
          "name": "newPhase",
          "type": "uint8"
        },
        {
          "indexed": false,
          "internalType": "uint256",
          "name": "timestamp",
          "type": "uint256"
        }
      ],
      "name": "PhaseChanged",
      "type": "event"
    },
    {
      "anonymous": false,
      "inputs": [
        {
          "indexed": true,
          "internalType": "address",
          "name": "validator",
          "type": "address"
        }
      ],
      "name": "ValidatorAdded",
      "type": "event"
    },
    {
      "anonymous": false,
      "inputs": [
        {
          "indexed": true,
          "internalType": "address",
          "name": "voter",
          "type": "address"
        },
        {
          "indexed": true,
          "internalType": "uint256",
          "name": "candidateId",
          "type": "uint256"
        },
        {
          "indexed": false,
          "internalType": "uint8",
          "name": "constituencyId",
          "type": "uint8"
        },
        {
          "indexed": false,
          "internalType": "bytes32",
          "name": "vvpatHash",
          "type": "bytes32"
        },
        {
          "indexed": false,
          "internalType": "uint256",
          "name": "timestamp",
          "type": "uint256"
        }
      ],
      "name": "VoteCast",
      "type": "event"
    },
    {
      "anonymous": false,
      "inputs": [
        {
          "indexed": true,
          "internalType": "address",
          "name": "voter",
          "type": "address"
        },
        {
          "indexed": false,
          "internalType": "uint8",
          "name": "constituencyId",
          "type": "uint8"
        },
        {
          "indexed": false,
          "internalType": "bytes32",
          "name": "aadhaarHash",
          "type": "bytes32"
        }
      ],
      "name": "VoterRegistered",
      "type": "event"
    },
    {
      "inputs": [
        {
          "internalType": "string",
          "name": "name",
          "type": "string"
        },
        {
          "internalType": "string",
          "name": "partyName",
          "type": "string"
        },
        {
          "internalType": "string",
          "name": "partySymbol",
          "type": "string"
        },
        {
          "internalType": "uint8",
          "name": "constituencyId",
          "type": "uint8"
        },
        {
          "internalType": "bool",
          "name": "isNOTA",
          "type": "bool"
        }
      ],
      "name": "addCandidate",
      "outputs": [],
      "stateMutability": "nonpayable",
      "type": "function"
    },
    {
      "inputs": [
        {
          "internalType": "address",
          "name": "validator",
          "type": "address"
        }
      ],
      "name": "addValidator",
      "outputs": [],
      "stateMutability": "nonpayable",
      "type": "function"
    },
    {
      "inputs": [
        {
          "internalType": "uint256",
          "name": "",
          "type": "uint256"
        }
      ],
      "name": "candidates",
      "outputs": [
        {
          "internalType": "uint256",
          "name": "id",
          "type": "uint256"
        },
        {
          "internalType": "string",
          "name": "name",
          "type": "string"
        },
        {
          "internalType": "string",
          "name": "partyName",
          "type": "string"
        },
        {
          "internalType": "string",
          "name": "partySymbol",
          "type": "string"
        },
        {
          "internalType": "uint8",
          "name": "constituencyId",
          "type": "uint8"
        },
        {
          "internalType": "uint256",
          "name": "voteCount",
          "type": "uint256"
        },
        {
          "internalType": "bool",
          "name": "isNOTA",
          "type": "bool"
        },
        {
          "internalType": "bool",
          "name": "exists",
          "type": "bool"
        }
      ],
      "stateMutability": "view",
      "type": "function"
    },
    {
      "inputs": [
        {
          "internalType": "uint256",
          "name": "candidateId",
          "type": "uint256"
        }
      ],
      "name": "castVote",
      "outputs": [],
      "stateMutability": "nonpayable",
      "type": "function"
    },
    {
      "inputs": [
        {
          "internalType": "uint8",
          "name": "",
          "type": "uint8"
        },
        {
          "internalType": "uint256",
          "name": "",
          "type": "uint256"
        }
      ],
      "name": "constituencyCandidates",
      "outputs": [
        {
          "internalType": "uint256",
          "name": "",
          "type": "uint256"
        }
      ],
      "stateMutability": "view",
      "type": "function"
    },
    {
      "inputs": [],
      "name": "constituencyCount",
      "outputs": [
        {
          "internalType": "uint8",
          "name": "",
          "type": "uint8"
        }
      ],
      "stateMutability": "view",
      "type": "function"
    },
    {
      "inputs": [],
      "name": "currentPhase",
      "outputs": [
        {
          "internalType": "enum IndianElection.Phase",
          "name": "",
          "type": "uint8"
        }
      ],
      "stateMutability": "view",
      "type": "function"
    },
    {
      "inputs": [],
      "name": "electionName",
      "outputs": [
        {
          "internalType": "string",
          "name": "",
          "type": "string"
        }
      ],
      "stateMutability": "view",
      "type": "function"
    },
    {
      "inputs": [
        {
          "internalType": "address",
          "name": "",
          "type": "address"
        }
      ],
      "name": "electionValidators",
      "outputs": [
        {
          "internalType": "bool",
          "name": "",
          "type": "bool"
        }
      ],
      "stateMutability": "view",
      "type": "function"
    },
    {
      "inputs": [],
      "name": "endVoting",
      "outputs": [],
      "stateMutability": "nonpayable",
      "type": "function"
    },
    {
      "inputs": [],
      "name": "forceEndVoting",
      "outputs": [],
      "stateMutability": "nonpayable",
      "type": "function"
    },
    {
      "inputs": [],
      "name": "getAllCandidates",
      "outputs": [
        {
          "components": [
            {
              "internalType": "uint256",
              "name": "id",
              "type": "uint256"
            },
            {
              "internalType": "string",
              "name": "name",
              "type": "string"
            },
            {
              "internalType": "string",
              "name": "partyName",
              "type": "string"
            },
            {
              "internalType": "string",
              "name": "partySymbol",
              "type": "string"
            },
            {
              "internalType": "uint8",
              "name": "constituencyId",
              "type": "uint8"
            },
            {
              "internalType": "uint256",
              "name": "voteCount",
              "type": "uint256"
            },
            {
              "internalType": "bool",
              "name": "isNOTA",
              "type": "bool"
            },
            {
              "internalType": "bool",
              "name": "exists",
              "type": "bool"
            }
          ],
          "internalType": "struct IndianElection.Candidate[]",
          "name": "",
          "type": "tuple[]"
        }
      ],
      "stateMutability": "view",
      "type": "function"
    },
    {
      "inputs": [],
      "name": "getCandidateCount",
      "outputs": [
        {
          "internalType": "uint256",
          "name": "",
          "type": "uint256"
        }
      ],
      "stateMutability": "view",
      "type": "function"
    },
    {
      "inputs": [
        {
          "internalType": "uint8",
          "name": "constituencyId",
          "type": "uint8"
        }
      ],
      "name": "getConstituencyCandidates",
      "outputs": [
        {
          "components": [
            {
              "internalType": "uint256",
              "name": "id",
              "type": "uint256"
            },
            {
              "internalType": "string",
              "name": "name",
              "type": "string"
            },
            {
              "internalType": "string",
              "name": "partyName",
              "type": "string"
            },
            {
              "internalType": "string",
              "name": "partySymbol",
              "type": "string"
            },
            {
              "internalType": "uint8",
              "name": "constituencyId",
              "type": "uint8"
            },
            {
              "internalType": "uint256",
              "name": "voteCount",
              "type": "uint256"
            },
            {
              "internalType": "bool",
              "name": "isNOTA",
              "type": "bool"
            },
            {
              "internalType": "bool",
              "name": "exists",
              "type": "bool"
            }
          ],
          "internalType": "struct IndianElection.Candidate[]",
          "name": "",
          "type": "tuple[]"
        }
      ],
      "stateMutability": "view",
      "type": "function"
    },
    {
      "inputs": [
        {
          "internalType": "uint8",
          "name": "constituencyId",
          "type": "uint8"
        }
      ],
      "name": "getConstituencyResults",
      "outputs": [
        {
          "components": [
            {
              "internalType": "uint256",
              "name": "id",
              "type": "uint256"
            },
            {
              "internalType": "string",
              "name": "name",
              "type": "string"
            },
            {
              "internalType": "string",
              "name": "partyName",
              "type": "string"
            },
            {
              "internalType": "string",
              "name": "partySymbol",
              "type": "string"
            },
            {
              "internalType": "uint8",
              "name": "constituencyId",
              "type": "uint8"
            },
            {
              "internalType": "uint256",
              "name": "voteCount",
              "type": "uint256"
            },
            {
              "internalType": "bool",
              "name": "isNOTA",
              "type": "bool"
            },
            {
              "internalType": "bool",
              "name": "exists",
              "type": "bool"
            }
          ],
          "internalType": "struct IndianElection.Candidate[]",
          "name": "sorted",
          "type": "tuple[]"
        }
      ],
      "stateMutability": "view",
      "type": "function"
    },
    {
      "inputs": [],
      "name": "getElectionStatus",
      "outputs": [
        {
          "internalType": "enum IndianElection.Phase",
          "name": "phase",
          "type": "uint8"
        },
        {
          "internalType": "uint256",
          "name": "voteStart",
          "type": "uint256"
        },
        {
          "internalType": "uint256",
          "name": "voteEnd",
          "type": "uint256"
        },
        {
          "internalType": "uint256",
          "name": "currentTime",
          "type": "uint256"
        },
        {
          "internalType": "uint256",
          "name": "totalVotes",
          "type": "uint256"
        }
      ],
      "stateMutability": "view",
      "type": "function"
    },
    {
      "inputs": [
        {
          "internalType": "address",
          "name": "voterAddress",
          "type": "address"
        }
      ],
      "name": "getVVPATReceipt",
      "outputs": [
        {
          "internalType": "bytes32",
          "name": "receiptHash",
          "type": "bytes32"
        },
        {
          "internalType": "bool",
          "name": "voted",
          "type": "bool"
        },
        {
          "internalType": "uint256",
          "name": "votedAt",
          "type": "uint256"
        }
      ],
      "stateMutability": "view",
      "type": "function"
    },
    {
      "inputs": [
        {
          "internalType": "address",
          "name": "voterAddress",
          "type": "address"
        }
      ],
      "name": "getVoterInfo",
      "outputs": [
        {
          "internalType": "uint8",
          "name": "constituencyId",
          "type": "uint8"
        },
        {
          "internalType": "bool",
          "name": "isRegistered",
          "type": "bool"
        },
        {
          "internalType": "bool",
          "name": "hasVoted",
          "type": "bool"
        },
        {
          "internalType": "bytes32",
          "name": "vvpatReceiptHash",
          "type": "bytes32"
        }
      ],
      "stateMutability": "view",
      "type": "function"
    },
    {
      "inputs": [],
      "name": "owner",
      "outputs": [
        {
          "internalType": "address",
          "name": "",
          "type": "address"
        }
      ],
      "stateMutability": "view",
      "type": "function"
    },
    {
      "inputs": [],
      "name": "publishResults",
      "outputs": [],
      "stateMutability": "nonpayable",
      "type": "function"
    },
    {
      "inputs": [
        {
          "internalType": "address",
          "name": "voterAddress",
          "type": "address"
        },
        {
          "internalType": "bytes32",
          "name": "aadhaarHash",
          "type": "bytes32"
        },
        {
          "internalType": "bytes32",
          "name": "epicHash",
          "type": "bytes32"
        },
        {
          "internalType": "uint8",
          "name": "constituencyId",
          "type": "uint8"
        }
      ],
      "name": "registerVoter",
      "outputs": [],
      "stateMutability": "nonpayable",
      "type": "function"
    },
    {
      "inputs": [],
      "name": "renounceOwnership",
      "outputs": [],
      "stateMutability": "nonpayable",
      "type": "function"
    },
    {
      "inputs": [
        {
          "internalType": "bytes32",
          "name": "aadhaarHash",
          "type": "bytes32"
        },
        {
          "internalType": "bytes32",
          "name": "epicHash",
          "type": "bytes32"
        },
        {
          "internalType": "uint8",
          "name": "constituencyId",
          "type": "uint8"
        }
      ],
      "name": "selfRegister",
      "outputs": [],
      "stateMutability": "nonpayable",
      "type": "function"
    },
    {
      "inputs": [
        {
          "internalType": "uint256",
          "name": "durationInSeconds",
          "type": "uint256"
        }
      ],
      "name": "startVoting",
      "outputs": [],
      "stateMutability": "nonpayable",
      "type": "function"
    },
    {
      "inputs": [
        {
          "internalType": "address",
          "name": "newOwner",
          "type": "address"
        }
      ],
      "name": "transferOwnership",
      "outputs": [],
      "stateMutability": "nonpayable",
      "type": "function"
    },
    {
      "inputs": [
        {
          "internalType": "bytes32",
          "name": "",
          "type": "bytes32"
        }
      ],
      "name": "usedAadhaarHashes",
      "outputs": [
        {
          "internalType": "bool",
          "name": "",
          "type": "bool"
        }
      ],
      "stateMutability": "view",
      "type": "function"
    },
    {
      "inputs": [
        {
          "internalType": "bytes32",
          "name": "",
          "type": "bytes32"
        }
      ],
      "name": "usedEpicHashes",
      "outputs": [
        {
          "internalType": "bool",
          "name": "",
          "type": "bool"
        }
      ],
      "stateMutability": "view",
      "type": "function"
    },
    {
      "inputs": [],
      "name": "validatorCount",
      "outputs": [
        {
          "internalType": "uint8",
          "name": "",
          "type": "uint8"
        }
      ],
      "stateMutability": "view",
      "type": "function"
    },
    {
      "inputs": [
        {
          "internalType": "address",
          "name": "",
          "type": "address"
        }
      ],
      "name": "voters",
      "outputs": [
        {
          "internalType": "bytes32",
          "name": "aadhaarHash",
          "type": "bytes32"
        },
        {
          "internalType": "bytes32",
          "name": "epicHash",
          "type": "bytes32"
        },
        {
          "internalType": "uint8",
          "name": "constituencyId",
          "type": "uint8"
        },
        {
          "internalType": "bool",
          "name": "isRegistered",
          "type": "bool"
        },
        {
          "internalType": "bool",
          "name": "hasVoted",
          "type": "bool"
        },
        {
          "internalType": "bytes32",
          "name": "vvpatReceiptHash",
          "type": "bytes32"
        },
        {
          "internalType": "uint256",
          "name": "votedAt",
          "type": "uint256"
        }
      ],
      "stateMutability": "view",
      "type": "function"
    },
    {
      "inputs": [],
      "name": "votingEndTime",
      "outputs": [
        {
          "internalType": "uint256",
          "name": "",
          "type": "uint256"
        }
      ],
      "stateMutability": "view",
      "type": "function"
    },
    {
      "inputs": [],
      "name": "votingStartTime",
      "outputs": [
        {
          "internalType": "uint256",
          "name": "",
          "type": "uint256"
        }
      ],
      "stateMutability": "view",
      "type": "function"
    }
  ],
  "bytecode": "0x60806040523480156200001157600080fd5b5060405162002fda38038062002fda833981016040819052620000349162000175565b33806200005b57604051631e4fbdf760e01b81526000600482015260240160405180910390fd5b6200006681620000f8565b5060017f9b779b17422d0df92223018b32b4d1fa46e071723d6817e2486d003becc55f00556004620000998382620002ec565b506003805460ff191660ff83161790556000805460ff60a01b191681556040517fe65264342b0c60a079c9c89c73855ac517088348498810186d8c8ae6c7848ba191620000e8914290620003b8565b60405180910390a15050620003e5565b600080546001600160a01b038381166001600160a01b0319831681178455604051919092169283917f8be0079c531659141344cd1fd0a4f28419497f9722a3daafe3b4186f6b6457e09190a35050565b634e487b7160e01b600052604160045260246000fd5b805160ff811681146200017057600080fd5b919050565b600080604083850312156200018957600080fd5b82516001600160401b0380821115620001a157600080fd5b818501915085601f830112620001b657600080fd5b815181811115620001cb57620001cb62000148565b604051601f8201601f19908116603f01168101908382118183101715620001f657620001f662000148565b816040528281526020935088848487010111156200021357600080fd5b600091505b8282101562000237578482018401518183018501529083019062000218565b6000848483010152809650505050620002528186016200015e565b925050509250929050565b600181811c908216806200027257607f821691505b6020821081036200029357634e487b7160e01b600052602260045260246000fd5b50919050565b601f821115620002e757600081815260208120601f850160051c81016020861015620002c25750805b601f850160051c820191505b81811015620002e357828155600101620002ce565b5050505b505050565b81516001600160401b0381111562000308576200030862000148565b62000320816200031984546200025d565b8462000299565b602080601f8311600181146200035857600084156200033f5750858301515b600019600386901b1c1916600185901b178555620002e3565b600085815260208120601f198616915b82811015620003895788860151825594840194600190910190840162000368565b5085821015620003a85787850151600019600388901b60f8161c191681555b5050505050600190811b01905550565b6040810160048410620003db57634e487b7160e01b600052602160045260246000fd5b9281526020015290565b612be580620003f56000396000f3fe608060405234801561001057600080fd5b50600436106101e55760003560e01c8063824feade1161010f578063b952e7d8116100a2578063ccdbe7bc11610071578063ccdbe7bc1461055a578063ef8b367d1461057d578063f2fde38b14610585578063fdb27c501461059857600080fd5b8063b952e7d814610524578063c3403ddf1461052c578063c719684114610534578063caf8afb41461054757600080fd5b80639e0da2a8116100de5780639e0da2a8146103e85780639ed1f255146103fb578063a3ec138d14610470578063aab73acf1461050157600080fd5b8063824feade1461039257806385e8e7a7146103a55780638da5cb5b146103ba5780639c0528c7146103d557600080fd5b806330a56347116101875780633eb76b9c116101565780633eb76b9c146103575780634d238c8e1461036a5780636c33f1a81461037d578063715018a61461038a57600080fd5b806330a56347146102e05780633477ee2e146102e857806339b81dea1461030f5780633d2f5bda1461034257600080fd5b8063122902a6116101c3578063122902a6146102925780631ea736e0146102ab5780632019a608146102c25780632e6997fe146102cb57600080fd5b8063055ad42e146101ea5780630b3500ea146102145780630f43a67714610273575b600080fd5b6000546101fe90600160a01b900460ff1681565b60405161020b919061243e565b60405180910390f35b61025861022236600461246e565b6001600160a01b031660009081526005602052604090206003810154600282015460049092015490926201000090920460ff1691565b6040805193845291151560208401529082015260600161020b565b600b546102809060ff1681565b60405160ff909116815260200161020b565b61029a6105ab565b60405161020b959493929190612490565b6102b460025481565b60405190815260200161020b565b6102b460015481565b6102d3610628565b60405161020b9190612506565b600a546102b4565b6102fb6102f63660046125e9565b610883565b60405161020b989796959493929190612602565b61033261031d3660046125e9565b60076020526000908152604090205460ff1681565b604051901515815260200161020b565b6103556103503660046125e9565b610a79565b005b6103556103653660046125e9565b610b7d565b61035561037836600461246e565b610f18565b6003546102809060ff1681565b610355611005565b6102d36103a0366004612682565b611019565b6103ad61130c565b60405161020b919061269d565b6000546040516001600160a01b03909116815260200161020b565b6102d36103e3366004612682565b61139a565b6103556103f63660046126b0565b61178e565b61044661040936600461246e565b6001600160a01b03166000908152600560205260409020600281015460039091015460ff8083169361010084048216936201000090049091169190565b6040805160ff9095168552921515602085015290151591830191909152606082015260800161020b565b6104c261047e36600461246e565b600560205260009081526040902080546001820154600283015460038401546004909401549293919260ff8083169361010084048216936201000090049091169187565b60408051978852602088019690965260ff9094169486019490945290151560608501521515608084015260a083019190915260c082015260e00161020b565b61033261050f36600461246e565b60086020526000908152604090205460ff1681565b610355611b18565b610355611baf565b61035561054236600461273f565b611c8d565b6102b4610555366004612803565b611f5f565b6103326105683660046125e9565b60066020526000908152604090205460ff1681565b610355611f90565b61035561059336600461246e565b611fd6565b6103556105a636600461282d565b612011565b60008080808080805b600a5481101561060257600a81815481106105d1576105d1612862565b906000526020600020906007020160050154826105ee919061288e565b9150806105fa816128a1565b9150506105b4565b50600054600154600254600160a01b90920460ff16989097509095504294509092509050565b6060600a805480602002602001604051908101604052809291908181526020016000905b8282101561087a5783829060005260206000209060070201604051806101000160405290816000820154815260200160018201805461068a906128ba565b80601f01602080910402602001604051908101604052809291908181526020018280546106b6906128ba565b80156107035780601f106106d857610100808354040283529160200191610703565b820191906000526020600020905b8154815290600101906020018083116106e657829003601f168201915b5050505050815260200160028201805461071c906128ba565b80601f0160208091040260200160405190810160405280929190818152602001828054610748906128ba565b80156107955780601f1061076a57610100808354040283529160200191610795565b820191906000526020600020905b81548152906001019060200180831161077857829003601f168201915b505050505081526020016003820180546107ae906128ba565b80601f01602080910402602001604051908101604052809291908181526020018280546107da906128ba565b80156108275780601f106107fc57610100808354040283529160200191610827565b820191906000526020600020905b81548152906001019060200180831161080a57829003601f168201915b5050509183525050600482015460ff90811660208084019190915260058401546040840152600690930154808216151560608401526101009004161515608090910152908252600192909201910161064c565b50505050905090565b600a818154811061089357600080fd5b600091825260209091206007909102018054600182018054919350906108b8906128ba565b80601f01602080910402602001604051908101604052809291908181526020018280546108e4906128ba565b80156109315780601f1061090657610100808354040283529160200191610931565b820191906000526020600020905b81548152906001019060200180831161091457829003601f168201915b505050505090806002018054610946906128ba565b80601f0160208091040260200160405190810160405280929190818152602001828054610972906128ba565b80156109bf5780601f10610994576101008083540402835291602001916109bf565b820191906000526020600020905b8154815290600101906020018083116109a257829003601f168201915b5050505050908060030180546109d4906128ba565b80601f0160208091040260200160405190810160405280929190818152602001828054610a00906128ba565b8015610a4d5780601f10610a2257610100808354040283529160200191610a4d565b820191906000526020600020905b815481529060010190602001808311610a3057829003601f168201915b50505060048401546005850154600690950154939460ff91821694909350808216925061010090041688565b610a816122cd565b600080600054600160a01b900460ff166003811115610aa257610aa2612406565b14610ac85760405162461bcd60e51b8152600401610abf906128f4565b60405180910390fd5b600a54610b175760405162461bcd60e51b815260206004820152601c60248201527f4e6f2063616e64696461746573207265676973746572656420796574000000006044820152606401610abf565b426001819055610b2890839061288e565b6002556000805460ff60a01b1916600160a01b1790556040517fe65264342b0c60a079c9c89c73855ac517088348498810186d8c8ae6c7848ba190610b71906001904290612940565b60405180910390a15050565b610b856122fa565b600180600054600160a01b900460ff166003811115610ba657610ba6612406565b14610bc35760405162461bcd60e51b8152600401610abf906128f4565b600254421115610c155760405162461bcd60e51b815260206004820152601760248201527f566f74696e6720706572696f642068617320656e6465640000000000000000006044820152606401610abf565b336000908152600560205260408120600a805491929185908110610c3b57610c3b612862565b906000526020600020906007020190508160020160019054906101000a900460ff16610ca95760405162461bcd60e51b815260206004820152601e60248201527f596f7520617265206e6f742061207265676973746572656420766f74657200006044820152606401610abf565b600282015462010000900460ff1615610d1b5760405162461bcd60e51b815260206004820152602e60248201527f596f75206861766520616c726561647920766f746564202d2d206f6e6520766f60448201526d3a32903832b91031b4ba34bd32b760911b6064820152608401610abf565b6006810154610100900460ff16610d745760405162461bcd60e51b815260206004820152601860248201527f43616e64696461746520646f6573206e6f7420657869737400000000000000006044820152606401610abf565b6002820154600482015460ff908116911614610de95760405162461bcd60e51b815260206004820152602e60248201527f43616e64696461746520646f6573206e6f742062656c6f6e6720746f20796f7560448201526d7220636f6e7374697475656e637960901b6064820152608401610abf565b60028201546000903390869060ff1642610e0460014361295b565b60405160609590951b6bffffffffffffffffffffffff19166020860152603485019390935260f89190911b6001600160f81b0319166054840152605583015240607582015260950160408051601f19818403018152919052805160209091012060028401805462ff0000191662010000179055600384018190554260048501556005830180549192506000610e98836128a1565b909155505060028301546040805160ff909216825260208201839052428282015251869133917ff76f4ee30e0684ffc33405bc1648f4cda285a3c6fa279a924bb513860ea885f19181900360600190a350505050610f1560017f9b779b17422d0df92223018b32b4d1fa46e071723d6817e2486d003becc55f0055565b50565b610f206122cd565b6001600160a01b03811660009081526008602052604090205460ff1615610f7f5760405162461bcd60e51b815260206004820152601360248201527220b63932b0b23c9030903b30b634b230ba37b960691b6044820152606401610abf565b6001600160a01b0381166000908152600860205260408120805460ff19166001179055600b805460ff1691610fb38361296e565b91906101000a81548160ff021916908360ff16021790555050806001600160a01b03167fe366c1c0452ed8eec96861e9e54141ebff23c9ec89fe27b996b45f5ec388498760405160405180910390a250565b61100d6122cd565b6110176000612328565b565b60ff8116600090815260096020526040812080546060929067ffffffffffffffff8111156110495761104961298d565b60405190808252806020026020018201604052801561108257816020015b61106f6123ba565b8152602001906001900390816110675790505b50905060005b825481101561130457600a8382815481106110a5576110a5612862565b9060005260206000200154815481106110c0576110c0612862565b906000526020600020906007020160405180610100016040529081600082015481526020016001820180546110f4906128ba565b80601f0160208091040260200160405190810160405280929190818152602001828054611120906128ba565b801561116d5780601f106111425761010080835404028352916020019161116d565b820191906000526020600020905b81548152906001019060200180831161115057829003601f168201915b50505050508152602001600282018054611186906128ba565b80601f01602080910402602001604051908101604052809291908181526020018280546111b2906128ba565b80156111ff5780601f106111d4576101008083540402835291602001916111ff565b820191906000526020600020905b8154815290600101906020018083116111e257829003601f168201915b50505050508152602001600382018054611218906128ba565b80601f0160208091040260200160405190810160405280929190818152602001828054611244906128ba565b80156112915780601f1061126657610100808354040283529160200191611291565b820191906000526020600020905b81548152906001019060200180831161127457829003601f168201915b5050509183525050600482015460ff908116602083015260058301546040830152600690920154808316151560608301526101009004909116151560809091015282518390839081106112e6576112e6612862565b602002602001018190525080806112fc906128a1565b915050611088565b509392505050565b60048054611319906128ba565b80601f0160208091040260200160405190810160405280929190818152602001828054611345906128ba565b80156113925780601f1061136757610100808354040283529160200191611392565b820191906000526020600020905b81548152906001019060200180831161137557829003601f168201915b505050505081565b60ff8116600090815260096020526040902080546060919067ffffffffffffffff8111156113ca576113ca61298d565b60405190808252806020026020018201604052801561140357816020015b6113f06123ba565b8152602001906001900390816113e85790505b50915060005b815481101561168557600a82828154811061142657611426612862565b90600052602060002001548154811061144157611441612862565b90600052602060002090600702016040518061010001604052908160008201548152602001600182018054611475906128ba565b80601f01602080910402602001604051908101604052809291908181526020018280546114a1906128ba565b80156114ee5780601f106114c3576101008083540402835291602001916114ee565b820191906000526020600020905b8154815290600101906020018083116114d157829003601f168201915b50505050508152602001600282018054611507906128ba565b80601f0160208091040260200160405190810160405280929190818152602001828054611533906128ba565b80156115805780601f1061155557610100808354040283529160200191611580565b820191906000526020600020905b81548152906001019060200180831161156357829003601f168201915b50505050508152602001600382018054611599906128ba565b80601f01602080910402602001604051908101604052809291908181526020018280546115c5906128ba565b80156116125780601f106115e757610100808354040283529160200191611612565b820191906000526020600020905b8154815290600101906020018083116115f557829003601f168201915b5050509183525050600482015460ff9081166020830152600583015460408301526006909201548083161515606083015261010090049091161515608090910152835184908390811061166757611667612862565b6020026020010181905250808061167d906128a1565b915050611409565b5060005b825181101561178757600061169f82600161288e565b90505b8351811015611774578382815181106116bd576116bd612862565b602002602001015160a001518482815181106116db576116db612862565b602002602001015160a00151111561176257600084838151811061170157611701612862565b6020026020010151905084828151811061171d5761171d612862565b602002602001015185848151811061173757611737612862565b60200260200101819052508085838151811061175557611755612862565b6020026020010181905250505b8061176c816128a1565b9150506116a2565b508061177f816128a1565b915050611689565b5050919050565b6000546001600160a01b03163314806117b657503360009081526008602052604090205460ff165b6117d25760405162461bcd60e51b8152600401610abf906129a3565b600080600054600160a01b900460ff1660038111156117f3576117f3612406565b146118105760405162461bcd60e51b8152600401610abf906128f4565b60008260ff1611801561182c575060035460ff90811690831611155b6118485760405162461bcd60e51b8152600401610abf906129ed565b6001600160a01b038516600090815260056020526040902060020154610100900460ff16156118b95760405162461bcd60e51b815260206004820152601860248201527f566f74657220616c7265616479207265676973746572656400000000000000006044820152606401610abf565b60008481526006602052604090205460ff16156119185760405162461bcd60e51b815260206004820152601a60248201527f4161646861617220616c726561647920726567697374657265640000000000006044820152606401610abf565b60008381526007602052604090205460ff16156119775760405162461bcd60e51b815260206004820152601c60248201527f45504943206361726420616c72656164792072656769737465726564000000006044820152606401610abf565b6040518060e001604052808581526020018481526020018360ff1681526020016001151581526020016000151581526020016000801b8152602001600081525060056000876001600160a01b03166001600160a01b03168152602001908152602001600020600082015181600001556020820151816001015560408201518160020160006101000a81548160ff021916908360ff16021790555060608201518160020160016101000a81548160ff02191690831515021790555060808201518160020160026101000a81548160ff02191690831515021790555060a0820151816003015560c0820151816004015590505060016006600086815260200190815260200160002060006101000a81548160ff02191690831515021790555060016007600085815260200190815260200160002060006101000a81548160ff021916908315150217905550846001600160a01b03167f1a8b8a8bcee64d7b44858dc813eddda427d859b2503398e514f68394f54d9daa8386604051611b0992919060ff929092168252602082015260400190565b60405180910390a25050505050565b611b206122cd565b600280600054600160a01b900460ff166003811115611b4157611b41612406565b14611b5e5760405162461bcd60e51b8152600401610abf906128f4565b6000805460ff60a01b1916600360a01b1790556040517fe65264342b0c60a079c9c89c73855ac517088348498810186d8c8ae6c7848ba190611ba4906003904290612940565b60405180910390a150565b611bb76122cd565b600180600054600160a01b900460ff166003811115611bd857611bd8612406565b14611bf55760405162461bcd60e51b8152600401610abf906128f4565b600254421015611c475760405162461bcd60e51b815260206004820152601f60248201527f566f74696e6720706572696f6420686173206e6f7420656e64656420796574006044820152606401610abf565b6000805460ff60a01b1916600160a11b1790556040517fe65264342b0c60a079c9c89c73855ac517088348498810186d8c8ae6c7848ba190611ba4906002904290612940565b6000546001600160a01b0316331480611cb557503360009081526008602052604090205460ff165b611cd15760405162461bcd60e51b8152600401610abf906129a3565b600080600054600160a01b900460ff166003811115611cf257611cf2612406565b14611d0f5760405162461bcd60e51b8152600401610abf906128f4565b60008360ff16118015611d2b575060035460ff90811690841611155b611d475760405162461bcd60e51b8152600401610abf906129ed565b6000600a805490509050600a6040518061010001604052808381526020018c8c8080601f016020809104026020016040519081016040528093929190818152602001838380828437600092019190915250505090825250604080516020601f8d018190048102820181019092528b815291810191908c908c9081908401838280828437600092019190915250505090825250604080516020601f8b0181900481028201810190925289815291810191908a908a9081908401838280828437600092018290525093855250505060ff8816602080840191909152604083018290528715156060840152600160809093018390528454808401865594825290819020835160079095020193845582015191929190820190611e669082612a6a565b5060408201516002820190611e7b9082612a6a565b5060608201516003820190611e909082612a6a565b50608082015160048201805460ff191660ff92831617905560a0830151600583015560c08301516006909201805460e09094015161ffff1990941692151561ff001916929092176101009315159390930292909217905584166000908152600960209081526040808320805460018101825590845291909220018290555181907fb4cdc8c33d7d4e96c6dfa9887fcd00a0eb03f4f323b869a1c7e96bcb11fc77b590611f4b908d908d908d908d908d908d908d908d90612b53565b60405180910390a250505050505050505050565b60096020528160005260406000208181548110611f7b57600080fd5b90600052602060002001600091509150505481565b611f986122cd565b600180600054600160a01b900460ff166003811115611fb957611fb9612406565b14611c475760405162461bcd60e51b8152600401610abf906128f4565b611fde6122cd565b6001600160a01b03811661200857604051631e4fbdf760e01b815260006004820152602401610abf565b610f1581612328565b600080600054600160a01b900460ff16600381111561203257612032612406565b1461204f5760405162461bcd60e51b8152600401610abf906128f4565b60008260ff1611801561206b575060035460ff90811690831611155b6120875760405162461bcd60e51b8152600401610abf906129ed565b33600090815260056020526040902060020154610100900460ff16156120e45760405162461bcd60e51b8152602060048201526012602482015271105b1c9958591e481c9959da5cdd195c995960721b6044820152606401610abf565b60008481526006602052604090205460ff16156121515760405162461bcd60e51b815260206004820152602560248201527f4161646861617220616c7265616479207573656420627920616e6f74686572206044820152643b37ba32b960d91b6064820152608401610abf565b60008381526007602052604090205460ff16156121c05760405162461bcd60e51b815260206004820152602760248201527f45504943206361726420616c7265616479207573656420627920616e6f74686560448201526639103b37ba32b960c91b6064820152608401610abf565b6040805160e081018252858152602080820186815260ff86811684860181815260016060870181815260006080890181815260a08a0182815260c08b018381523380855260058c528d85209c518d5599518c870155955160028c018054955193511515620100000262ff0000199415156101000261ffff1990971692909a169190911794909417919091169690961790915593516003880155905160049096019590955589825260068452858220805460ff1990811687179091558983526007855291869020805490921690941790558351928352908201879052917f1a8b8a8bcee64d7b44858dc813eddda427d859b2503398e514f68394f54d9daa910160405180910390a250505050565b6000546001600160a01b031633146110175760405163118cdaa760e01b8152336004820152602401610abf565b612302612378565b60027f9b779b17422d0df92223018b32b4d1fa46e071723d6817e2486d003becc55f0055565b600080546001600160a01b038381166001600160a01b0319831681178455604051919092169283917f8be0079c531659141344cd1fd0a4f28419497f9722a3daafe3b4186f6b6457e09190a35050565b7f9b779b17422d0df92223018b32b4d1fa46e071723d6817e2486d003becc55f005460020361101757604051633ee5aeb560e01b815260040160405180910390fd5b60405180610100016040528060008152602001606081526020016060815260200160608152602001600060ff168152602001600081526020016000151581526020016000151581525090565b634e487b7160e01b600052602160045260246000fd5b6004811061243a57634e487b7160e01b600052602160045260246000fd5b9052565b6020810161244c828461241c565b92915050565b80356001600160a01b038116811461246957600080fd5b919050565b60006020828403121561248057600080fd5b61248982612452565b9392505050565b60a0810161249e828861241c565b8560208301528460408301528360608301528260808301529695505050505050565b6000815180845260005b818110156124e6576020818501810151868301820152016124ca565b506000602082860101526020601f19601f83011685010191505092915050565b60006020808301818452808551808352604092508286019150828160051b87010184880160005b838110156125db57603f1989840301855281516101008151855288820151818a87015261255c828701826124c0565b915050878201518582038987015261257482826124c0565b9150506060808301518683038288015261258e83826124c0565b925050506080808301516125a68288018260ff169052565b505060a0828101519086015260c08083015115159086015260e09182015115159190940152938601939086019060010161252d565b509098975050505050505050565b6000602082840312156125fb57600080fd5b5035919050565b60006101008a835280602084015261261c8184018b6124c0565b90508281036040840152612630818a6124c0565b9050828103606084015261264481896124c0565b60ff979097166080840152505060a081019390935290151560c0830152151560e090910152949350505050565b803560ff8116811461246957600080fd5b60006020828403121561269457600080fd5b61248982612671565b60208152600061248960208301846124c0565b600080600080608085870312156126c657600080fd5b6126cf85612452565b935060208501359250604085013591506126eb60608601612671565b905092959194509250565b60008083601f84011261270857600080fd5b50813567ffffffffffffffff81111561272057600080fd5b60208301915083602082850101111561273857600080fd5b9250929050565b60008060008060008060008060a0898b03121561275b57600080fd5b883567ffffffffffffffff8082111561277357600080fd5b61277f8c838d016126f6565b909a50985060208b013591508082111561279857600080fd5b6127a48c838d016126f6565b909850965060408b01359150808211156127bd57600080fd5b506127ca8b828c016126f6565b90955093506127dd905060608a01612671565b9150608089013580151581146127f257600080fd5b809150509295985092959890939650565b6000806040838503121561281657600080fd5b61281f83612671565b946020939093013593505050565b60008060006060848603121561284257600080fd5b833592506020840135915061285960408501612671565b90509250925092565b634e487b7160e01b600052603260045260246000fd5b634e487b7160e01b600052601160045260246000fd5b8082018082111561244c5761244c612878565b6000600182016128b3576128b3612878565b5060010190565b600181811c908216806128ce57607f821691505b6020821081036128ee57634e487b7160e01b600052602260045260246000fd5b50919050565b6020808252602c908201527f416374696f6e206e6f7420616c6c6f77656420696e2063757272656e7420656c60408201526b656374696f6e20706861736560a01b606082015260800190565b6040810161294e828561241c565b8260208301529392505050565b8181038181111561244c5761244c612878565b600060ff821660ff810361298457612984612878565b60010192915050565b634e487b7160e01b600052604160045260246000fd5b6020808252602a908201527f43616c6c6572206973206e6f7420616e20456c656374696f6e20436f6d6d697360408201526939b4b7b71030b236b4b760b11b606082015260800190565b602080825260149082015273496e76616c696420636f6e7374697475656e637960601b604082015260600190565b601f821115612a6557600081815260208120601f850160051c81016020861015612a425750805b601f850160051c820191505b81811015612a6157828155600101612a4e565b5050505b505050565b815167ffffffffffffffff811115612a8457612a8461298d565b612a9881612a9284546128ba565b84612a1b565b602080601f831160018114612acd5760008415612ab55750858301515b600019600386901b1c1916600185901b178555612a61565b600085815260208120601f198616915b82811015612afc57888601518255948401946001909101908401612add565b5085821015612b1a5787850151600019600388901b60f8161c191681555b5050505050600190811b01905550565b81835281816020850137506000828201602090810191909152601f909101601f19169091010190565b60a081526000612b6760a083018a8c612b2a565b8281036020840152612b7a81898b612b2a565b90508281036040840152612b8f818789612b2a565b60ff9590951660608401525050901515608090910152969550505050505056fea2646970667358221220dec3bb310902345db8024f7607d3ee8b3f966c7edc6379bab1c8ae91dc3ed0fe64736f6c63430008140033",
  "linkReferences": {},
  "deployedLinkReferences": {}
}